{"abi":[{"type":"constructor","inputs":[{"name":"_factory","type":"address","internalType":"address"}],"stateMutability":"nonpayable"},{"type":"function","name":"approve","inputs":[{"name":"to","type":"address","internalType":"address"},{"name":"tokenId","type":"uint256","internalType":"uint256"}],"outputs":[],"stateMutability":"nonpayable"},{"type":"function","name":"authorizeMinter","inputs":[{"name":"minter","type":"address","internalType":"address"}],"outputs":[],"stateMutability":"nonpayable"},{"type":"function","name":"balanceOf","inputs":[{"name":"owner","type":"address","internalType":"address"}],"outputs":[{"name":"","type":"uint256","internalType":"uint256"}],"stateMutability":"view"},{"type":"function","name":"factory","inputs":[],"outputs":[{"name":"","type":"address","internalType":"address"}],"stateMutability":"view"},{"type":"function","name":"getApproved","inputs":[{"name":"tokenId","type":"uint256","internalType":"uint256"}],"outputs":[{"name":"","type":"address","internalType":"address"}],"stateMutability":"view"},{"type":"function","name":"getPOAPData","inputs":[{"name":"tokenId","type":"uint256","internalType":"uint256"}],"outputs":[{"name":"","type":"tuple","internalType":"struct IAttendancePOAP.POAPData","components":[{"name":"sourceContract","type":"address","internalType":"address"},{"name":"attendee","type":"address","internalType":"address"},{"name":"issuedAt","type":"uint64","internalType":"uint64"}]}],"stateMutability":"view"},{"type":"function","name":"getTokensBySource","inputs":[{"name":"sourceContract","type":"address","internalType":"address"}],"outputs":[{"name":"","type":"uint256[]","internalType":"uint256[]"}],"stateMutability":"view"},{"type":"function","name":"isApprovedForAll","inputs":[{"name":"owner","type":"address","internalType":"address"},{"name":"operator","type":"address","internalType":"address"}],"outputs":[{"name":"","type":"bool","internalType":"bool"}],"stateMutability":"view"},{"type":"function","name":"isAuthorizedMinter","inputs":[{"name":"","type":"address","internalType":"address"}],"outputs":[{"name":"","type":"bool","internalType":"bool"}],"stateMutability":"view"},{"type":"function","name":"mintPOAP","inputs":[{"name":"attendee","type":"address","internalType":"address"},{"name":"sourceContract","type":"address","internalType":"address"}],"outputs":[{"name":"tokenId","type":"uint256","internalType":"uint256"}],"stateMutability":"nonpayable"},{"type":"function","name":"name","inputs":[],"outputs":[{"name":"","type":"string","internalType":"string"}],"stateMutability":"view"},{"type":"function","name":"ownerOf","inputs":[{"name":"tokenId","type":"uint256","internalType":"uint256"}],"outputs":[{"name":"","type":"address","internalType":"address"}],"stateMutability":"view"},{"type":"function","name":"poapData","inputs":[{"name":"","type":"uint256","internalType":"uint256"}],"outputs":[{"name":"sourceContract","type":"address","internalType":"address"},{"name":"attendee","type":"address","internalType":"address"},{"name":"issuedAt","type":"uint64","internalType":"uint64"}],"stateMutability":"view"},{"type":"function","name":"renounceFactory","inputs":[],"outputs":[],"stateMutability":"nonpayable"},{"type":"function","name":"revokeMinter","inputs":[{"name":"minter","type":"address","internalType":"address"}],"outputs":[],"stateMutability":"nonpayable"},{"type":"function","name":"safeTransferFrom","inputs":[{"name":"from","type":"address","internalType":"address"},{"name":"to","type":"address","internalType":"address"},{"name":"tokenId","type":"uint256","internalType":"uint256"}],"outputs":[],"stateMutability":"nonpayable"},{"type":"function","name":"safeTransferFrom","inputs":[{"name":"from","type":"address","internalType":"address"},{"name":"to","type":"address","internalType":"address"},{"name":"tokenId","type":"uint256","internalType":"uint256"},{"name":"data","type":"bytes","internalType":"bytes"}],"outputs":[],"stateMutability":"nonpayable"},{"type":"function","name":"setApprovalForAll","inputs":[{"name":"operator","type":"address","internalType":"address"},{"name":"approved","type":"bool","internalType":"bool"}],"outputs":[],"stateMutability":"nonpayable"},{"type":"function","name":"supportsInterface","inputs":[{"name":"interfaceId","type":"bytes4","internalType":"bytes4"}],"outputs":[{"name":"","type":"bool","internalType":"bool"}],"stateMutability":"view"},{"type":"function","name":"symbol","inputs":[],"outputs":[{"name":"","type":"string","internalType":"string"}],"stateMutability":"view"},{"type":"function","name":"tokenURI","inputs":[{"name":"tokenId","type":"uint256","internalType":"uint256"}],"outputs":[{"name":"","type":"string","internalType":"string"}],"stateMutability":"view"},{"type":"function","name":"transferFactory","inputs":[{"name":"newFactory","type":"address","internalType":"address"}],"outputs":[],"stateMutability":"nonpayable"},{"type":"function","name":"transferFrom","inputs":[{"name":"from","type":"address","internalType":"address"},{"name":"to","type":"address","internalType":"address"},{"name":"tokenId","type":"uint256","internalType":"uint256"}],"outputs":[],"stateMutability":"nonpayable"},{"type":"event","name":"Approval","inputs":[{"name":"owner","type":"address","indexed":true,"internalType":"address"},{"name":"approved","type":"address","indexed":true,"internalType":"address"},{"name":"tokenId","type":"uint256","indexed":true,"internalType":"uint256"}],"anonymous":false},{"type":"event","name":"ApprovalForAll","inputs":[{"name":"owner","type":"address","indexed":true,"internalType":"address"},{"name":"operator","type":"address","indexed":true,"internalType":"address"},{"name":"approved","type":"bool","indexed":false,"internalType":"bool"}],"anonymous":false},{"type":"event","name":"FactoryRenounced","inputs":[{"name":"previousFactory","type":"address","indexed":true,"internalType":"address"}],"anonymous":false},{"type":"event","name":"FactoryTransferred","inputs":[{"name":"previousFactory","type":"address","indexed":true,"internalType":"address"},{"name":"newFactory","type":"address","indexed":true,"internalType":"address"}],"anonymous":false},{"type":"event","name":"MinterAuthorized","inputs":[{"name":"minter","type":"address","indexed":true,"internalType":"address"}],"anonymous":false},{"type":"event","name":"MinterRevoked","inputs":[{"name":"minter","type":"address","indexed":true,"internalType":"address"}],"anonymous":false},{"type":"event","name":"POAPMinted","inputs":[{"name":"tokenId","type":"uint256","indexed":true,"internalType":"uint256"},{"name":"attendee","type":"address","indexed":true,"internalType":"address"},{"name":"sourceContract","type":"address","indexed":true,"internalType":"address"}],"anonymous":false},{"type":"event","name":"Transfer","inputs":[{"name":"from","type":"address","indexed":true,"internalType":"address"},{"name":"to","type":"address","indexed":true,"internalType":"address"},{"name":"tokenId","type":"uint256","indexed":true,"internalType":"uint256"}],"anonymous":false},{"type":"error","name":"AlreadyAuthorized","inputs":[]},{"type":"error","name":"ERC721IncorrectOwner","inputs":[{"name":"sender","type":"address","internalType":"address"},{"name":"tokenId","type":"uint256","internalType":"uint256"},{"name":"owner","type":"address","internalType":"address"}]},{"type":"error","name":"ERC721InsufficientApproval","inputs":[{"name":"operator","type":"address","internalType":"address"},{"name":"tokenId","type":"uint256","internalType":"uint256"}]},{"type":"error","name":"ERC721InvalidApprover","inputs":[{"name":"approver","type":"address","internalType":"address"}]},{"type":"error","name":"ERC721InvalidOperator","inputs":[{"name":"operator","type":"address","internalType":"address"}]},{"type":"error","name":"ERC721InvalidOwner","inputs":[{"name":"owner","type":"address","internalType":"address"}]},{"type":"error","name":"ERC721InvalidReceiver","inputs":[{"name":"receiver","type":"address","internalType":"address"}]},{"type":"error","name":"ERC721InvalidSender","inputs":[{"name":"sender","type":"address","internalType":"address"}]},{"type":"error","name":"ERC721NonexistentToken","inputs":[{"name":"tokenId","type":"uint256","internalType":"uint256"}]},{"type":"error","name":"NotAuthorized","inputs":[]},{"type":"error","name":"OnlyAuthorizedMinter","inputs":[]},{"type":"error","name":"OnlyFactory","inputs":[]},{"type":"error","name":"TransferNotAllowed","inputs":[]}],"bytecode":{"object":"0x608060405234610359576116f26020813803918261001c8161035d565b93849283398101031261035957516001600160a01b0381169081900361035957610046604061035d565b90600f82526e0436f6e666572656e636520504f415608c1b602083015261006d604061035d565b60048152630504f41560e41b602082015282519091906001600160401b038111610262575f54600181811c9116801561034f575b602082101461024457601f81116102e2575b506020601f821160011461028157819293945f92610276575b50508160011b915f199060031b1c1916175f555b81516001600160401b03811161026257600154600181811c91168015610258575b602082101461024457601f81116101d6575b50602092601f821160011461017557928192935f9261016a575b50508160011b915f199060031b1c1916176001555b6001600755600680546001600160a01b03191691909117905560405161136f90816103838239f35b015190505f8061012d565b601f1982169360015f52805f20915f5b8681106101be57508360019596106101a6575b505050811b01600155610142565b01515f1960f88460031b161c191690555f8080610198565b91926020600181928685015181550194019201610185565b818111156101135760015f52601f820160051c7fb10e2d527612073b26eecdfd717e6a320cf44b4afac2b0732d9fcbe2b7fa0cf66020841061023c575b81601f9101920160051c03905f5b82811061022f575050610113565b5f82820155600101610221565b5f9150610213565b634e487b7160e01b5f52602260045260245ffd5b90607f1690610101565b634e487b7160e01b5f52604160045260245ffd5b015190505f806100cc565b601f198216905f8052805f20915f5b8181106102ca575095836001959697106102b2575b505050811b015f556100e0565b01515f1960f88460031b161c191690555f80806102a5565b9192602060018192868b015181550194019201610290565b818111156100b3575f8052601f820160051c7f290decd9548b62a8d60345a988386fc84ba6bc95484008f6362f93160ef3e56360208410610347575b81601f9101920160051c03905f5b82811061033a5750506100b3565b5f8282015560010161032c565b5f915061031e565b90607f16906100a1565b5f80fd5b6040519190601f01601f191682016001600160401b038111838210176102625760405256fe6080806040526004361015610012575f80fd5b5f905f3560e01c90816301ffc9a714610ec85750806306fdde0314610e10578063081812fc14610dd4578063095ea7b314610cea5780630c98483214610c5557806323b872dd14610c3e57806342842e0e14610c0f5780636352211e14610bdf57806370a0823114610b8e57806373a41298146107c557806380e91f4814610711578063841c59c7146106ba578063842392c21461067d57806395d89b4114610575578063a22cb465146104c1578063a859fd0314610441578063b88d4fde146103ab578063c45a015514610383578063c87b56dd14610326578063cfbd488514610283578063d49bdad014610219578063e985e9c5146101c15763f728ff4b1461011b575f80fd5b346101be5760203660031901126101be5760406060916004358183805161014181610fbd565b8281528260208201520152610155816111cf565b50815260096020522067ffffffffffffffff60405161017381610fbd565b6001808060a01b0384541693848352015490826040602083019260018060a01b0385168452019260a01c16825260405193845260018060a01b03905116602084015251166040820152f35b80fd5b50346101be5760403660031901126101be5760406101dd610f57565b916101e6610f6d565b9260018060a01b031681526005602052209060018060a01b03165f52602052602060ff60405f2054166040519015158152f35b50346101be57806003193601126101be576006546001600160a01b0381169033829003610274576001600160a01b0319166006557f3929a1a4ca25c3bf99e090d882f07d653c617ec3b608c39199749ad18bbd831c8280a280f35b630636a15760e11b8352600483fd5b50346101be5760203660031901126101be5761029d610f57565b6006546001600160a01b03163303610317576001600160a01b03168082526008602052604082205460ff161561030857808252600860205260408220805460ff191690557f44f4322f8daa225d5f4877ad0f7d3dfba248a774396f3ca99405ed40a044fe818280a280f35b63ea8e4eb560e01b8252600482fd5b630636a15760e11b8252600482fd5b3461037f57602036600319011261037f576103426004356111cf565b505f604051610352602082610fd9565b5261037b604051610364602082610fd9565b5f8152604051918291602083526020830190610f33565b0390f35b5f80fd5b3461037f575f36600319011261037f576006546040516001600160a01b039091168152602090f35b3461037f57608036600319011261037f576103c4610f57565b6103cc610f6d565b906044356064359267ffffffffffffffff841161037f573660238501121561037f578360040135926103fd84610ffb565b9361040b6040519586610fd9565b808552366024828801011161037f576020815f92602461043f99018389013786010152610439838383611017565b33611203565b005b3461037f57602036600319011261037f5761045a610f57565b600654906001600160a01b03821690338290036104b2576001600160a01b03166001600160a01b03199290921682176006557fee73f3b961dc2f62a47c980bc005e87d34a34c69699cb14c5255d55591c74ce85f80a3005b630636a15760e11b5f5260045ffd5b3461037f57604036600319011261037f576104da610f57565b6024359081151580920361037f573315610562576001600160a01b031690811561054f57335f52600560205260405f20825f5260205260405f2060ff1981541660ff83161790556040519081527f17307eab39ab6107e8899845ad3d59bd9653f200f220920489ca2b5937696c3160203392a3005b50630b61174360e31b5f5260045260245ffd5b63a9fbf51f60e01b5f525f60045260245ffd5b3461037f575f36600319011261037f576040515f6001548060011c90600181168015610673575b60208310811461065f5782855290811561063b57506001146105dd575b61037b836105c981850382610fd9565b604051918291602083526020830190610f33565b91905060015f527fb10e2d527612073b26eecdfd717e6a320cf44b4afac2b0732d9fcbe2b7fa0cf6915f905b808210610621575090915081016020016105c96105b9565b919260018160209254838588010152019101909291610609565b60ff191660208086019190915291151560051b840190910191506105c990506105b9565b634e487b7160e01b5f52602260045260245ffd5b91607f169161059c565b3461037f57602036600319011261037f576001600160a01b0361069e610f57565b165f526008602052602060ff60405f2054166040519015158152f35b3461037f57602036600319011261037f576004355f526009602052606060405f2067ffffffffffffffff6001808060a01b0383541692015460405192835260018060a01b038116602084015260a01c166040820152f35b3461037f57602036600319011261037f576001600160a01b03610732610f57565b165f52600a60205260405f20604051806020835491828152019081935f5260205f20905f5b8181106107af575050508161076d910382610fd9565b604051918291602083019060208452518091526040830191905f5b818110610796575050500390f35b8251845285945060209384019390920191600101610788565b8254845260209093019260019283019201610757565b3461037f57604036600319011261037f576107de610f57565b6107e6610f6d565b90335f52600860205260ff60405f20541615610b7f576007545f198114610b6b576001810160075560209260405161081e8582610fd9565b5f81526001600160a01b038416938415610b58575f8481526002875260409020546001600160a01b0316151580610b50575b610b41575f8481526002875260409020546001600160a01b03168015159081610b10575b865f526003885260405f2060018154019055855f526002885260405f20876bffffffffffffffffffffffff60a01b8254161790558587827fddf252ad1be2c89b69c2b068fc378daa952ba7f163c4a11628f55a4df523b3ef5f80a450610afd5785903b6109f1575b5050604051906108eb82610fbd565b6001600160a01b039081168083528583018581524267ffffffffffffffff1660408086019182525f87815260098a52818120965187546001600160a01b0319169087161787559251600196909601805492516001600160e01b0319909316969095169590951760a09190911b67ffffffffffffffff60a01b1617909255808252600a86529190208054680100000000000000008110156109dd57600181018083558110156109c95783915f52855f20015560405192827fb5f9d6b85e49f6dc6123e619425d6613da524669f30ed6557e6f026803a37c825f80a48152f35b634e487b7160e01b5f52603260045260245ffd5b634e487b7160e01b5f52604160045260245ffd5b610a299160405180938192630a85bd0160e11b83523360048401525f6024840152876044840152608060648401526084830190610f33565b03815f885af15f9181610abd575b50610a8c5783853d15610a84573d90610a4f82610ffb565b91610a5d6040519384610fd9565b82523d5f8284013e5b81519182610a815783633250574960e11b5f5260045260245ffd5b01fd5b606090610a66565b6001600160e01b03191663757a42ff60e11b01610aaa5784846108dc565b82633250574960e11b5f5260045260245ffd5b9091508581813d8311610af6575b610ad58183610fd9565b8101031261037f57516001600160e01b03198116810361037f579086610a37565b503d610acb565b6339e3563760e11b5f525f60045260245ffd5b5f8681526004602052604080822080546001600160a01b031916905582825260038a52902080545f19019055610874565b638cd22d1960e01b5f5260045ffd5b506001610850565b633250574960e11b5f525f60045260245ffd5b634e487b7160e01b5f52601160045260245ffd5b6319564af960e21b5f5260045ffd5b3461037f57602036600319011261037f576001600160a01b03610baf610f57565b168015610bcc575f526003602052602060405f2054604051908152f35b6322718ad960e21b5f525f60045260245ffd5b3461037f57602036600319011261037f576020610bfd6004356111cf565b6040516001600160a01b039091168152f35b3461037f5761043f610c2036610f83565b9060405192610c30602085610fd9565b5f8452610439838383611017565b3461037f5761043f610c4f36610f83565b91611017565b3461037f57602036600319011261037f57610c6e610f57565b6006546001600160a01b031633036104b2576001600160a01b03165f8181526008602052604090205460ff16610cdb57805f52600860205260405f20600160ff198254161790557f83b05b6735acd4b85e3bded8e72c851d1a87718f81e3c8e6f0c9d9a2baa88e465f80a2005b633013e93f60e11b5f5260045ffd5b3461037f57604036600319011261037f57610d03610f57565b602435610d0f816111cf565b33151580610dc1575b80610d94575b610d815781906001600160a01b0384811691167f8c5be1e5ebec7d5bd14f71427d1e84f3dd0314c0f7b2291e5b200ac8c7c3b9255f80a45f90815260046020526040902080546001600160a01b0319166001600160a01b03909216919091179055005b63a9fbf51f60e01b5f523360045260245ffd5b506001600160a01b0381165f90815260056020908152604080832033845290915290205460ff1615610d1e565b506001600160a01b038116331415610d18565b3461037f57602036600319011261037f57600435610df1816111cf565b505f526004602052602060018060a01b0360405f205416604051908152f35b3461037f575f36600319011261037f576040515f5f548060011c90600181168015610ebe575b60208310811461065f5782855290811561063b5750600114610e625761037b836105c981850382610fd9565b5f8080527f290decd9548b62a8d60345a988386fc84ba6bc95484008f6362f93160ef3e563939250905b808210610ea4575090915081016020016105c96105b9565b919260018160209254838588010152019101909291610e8c565b91607f1691610e36565b3461037f57602036600319011261037f576004359063ffffffff60e01b821680920361037f576020916380ac58cd60e01b8114908115610f22575b8115610f11575b5015158152f35b6301ffc9a760e01b14905083610f0a565b635b5e139f60e01b81149150610f03565b805180835260209291819084018484015e5f828201840152601f01601f1916010190565b600435906001600160a01b038216820361037f57565b602435906001600160a01b038216820361037f57565b606090600319011261037f576004356001600160a01b038116810361037f57906024356001600160a01b038116810361037f579060443590565b6060810190811067ffffffffffffffff8211176109dd57604052565b90601f8019910116810190811067ffffffffffffffff8211176109dd57604052565b67ffffffffffffffff81116109dd57601f01601f191660200190565b6001600160a01b0390911691908215610b58575f828152600260205260409020546001600160a01b03161515806111c7575b610b41575f828152600260205260409020546001600160a01b031692829033151580611132575b50846110ff575b805f52600360205260405f2060018154019055815f52600260205260405f20816bffffffffffffffffffffffff60a01b825416179055847fddf252ad1be2c89b69c2b068fc378daa952ba7f163c4a11628f55a4df523b3ef5f80a46001600160a01b03168083036110e757505050565b6364283d7b60e01b5f5260045260245260445260645ffd5b5f82815260046020526040902080546001600160a01b0319169055845f52600360205260405f205f198154019055611077565b90915080611176575b156111485782905f611070565b828461116057637e27328960e01b5f5260045260245ffd5b63177e802f60e01b5f523360045260245260445ffd5b5033841480156111a5575b8061113b57505f838152600460205260409020546001600160a01b0316331461113b565b505f84815260056020908152604080832033845290915290205460ff16611181565b506001611049565b5f818152600260205260409020546001600160a01b03169081156111f1575090565b637e27328960e01b5f5260045260245ffd5b823b611211575b5050505050565b604051630a85bd0160e11b81526001600160a01b03918216600482015291811660248301526044820193909352608060648201529116916020908290819061125d906084830190610f33565b03815f865af15f91816112f4575b506112c057503d156112b9573d61128181610ffb565b9061128f6040519283610fd9565b81523d5f602083013e5b805190816112b45782633250574960e11b5f5260045260245ffd5b602001fd5b6060611299565b6001600160e01b03191663757a42ff60e11b016112e257505f8080808061120a565b633250574960e11b5f5260045260245ffd5b9091506020813d602011611331575b8161131060209383610fd9565b8101031261037f57516001600160e01b03198116810361037f57905f61126b565b3d915061130356fea26469706673582212206a74ef0a074398cea00d2ef0206c3666b5505e9572710eb8af0c69b8ac9876b764736f6c63430008230033","linkReferences":{}},"methodIdentifiers":{"approve(address,uint256)":"095ea7b3","authorizeMinter(address)":"0c984832","balanceOf(address)":"70a08231","factory()":"c45a0155","getApproved(uint256)":"081812fc","getPOAPData(uint256)":"f728ff4b","getTokensBySource(address)":"80e91f48","isApprovedForAll(address,address)":"e985e9c5","isAuthorizedMinter(address)":"842392c2","mintPOAP(address,address)":"73a41298","name()":"06fdde03","ownerOf(uint256)":"6352211e","poapData(uint256)":"841c59c7","renounceFactory()":"d49bdad0","revokeMinter(address)":"cfbd4885","safeTransferFrom(address,address,uint256)":"42842e0e","safeTransferFrom(address,address,uint256,bytes)":"b88d4fde","setApprovalForAll(address,bool)":"a22cb465","supportsInterface(bytes4)":"01ffc9a7","symbol()":"95d89b41","tokenURI(uint256)":"c87b56dd","transferFactory(address)":"a859fd03","transferFrom(address,address,uint256)":"23b872dd"},"id":51}